{
  "_format": "hh-sol-artifact-1",
  "contractName": "TokenFaucet",
  "sourceName": "contracts/TokenFaucet.sol",
  "abi": [
    {
      "inputs": [
        {
          "internalType": "address",
          "name": "_token",
          "type": "address"
        },
        {
          "internalType": "uint256",
          "name": "_amountPerRequest",
          "type": "uint256"
        }
      ],
      "stateMutability": "nonpayable",
      "type": "constructor"
    },
    {
      "anonymous": false,
      "inputs": [
        {
          "indexed": false,
          "internalType": "uint256",
          "name": "oldAmount",
          "type": "uint256"
        },
        {
          "indexed": false,
          "internalType": "uint256",
          "name": "newAmount",
          "type": "uint256"
        }
      ],
      "name": "AmountPerRequestChanged",
      "type": "event"
    },
    {
      "anonymous": false,
      "inputs": [
        {
          "indexed": true,
          "internalType": "address",
          "name": "previousOwner",
          "type": "address"
        },
        {
          "indexed": true,
          "internalType": "address",
          "name": "newOwner",
          "type": "address"
        }
      ],
      "name": "OwnershipTransferred",
      "type": "event"
    },
    {
      "anonymous": false,
      "inputs": [
        {
          "indexed": true,
          "internalType": "address",
          "name": "recipient",
          "type": "address"
        },
        {
          "indexed": false,
          "internalType": "uint256",
          "name": "amount",
          "type": "uint256"
        }
      ],
      "name": "TokensDistributed",
      "type": "event"
    },
    {
      "inputs": [],
      "name": "amountPerRequest",
      "outputs": [
        {
          "internalType": "uint256",
          "name": "",
          "type": "uint256"
        }
      ],
      "stateMutability": "view",
      "type": "function"
    },
    {
      "inputs": [
        {
          "internalType": "address",
          "name": "",
          "type": "address"
        }
      ],
      "name": "hasClaimed",
      "outputs": [
        {
          "internalType": "bool",
          "name": "",
          "type": "bool"
        }
      ],
      "stateMutability": "view",
      "type": "function"
    },
    {
      "inputs": [],
      "name": "owner",
      "outputs": [
        {
          "internalType": "address",
          "name": "",
          "type": "address"
        }
      ],
      "stateMutability": "view",
      "type": "function"
    },
    {
      "inputs": [],
      "name": "renounceOwnership",
      "outputs": [],
      "stateMutability": "nonpayable",
      "type": "function"
    },
    {
      "inputs": [
        {
          "internalType": "address",
          "name": "user",
          "type": "address"
        }
      ],
      "name": "resetClaimStatus",
      "outputs": [],
      "stateMutability": "nonpayable",
      "type": "function"
    },
    {
      "inputs": [
        {
          "internalType": "address",
          "name": "user",
          "type": "address"
        }
      ],
      "name": "sendTo",
      "outputs": [],
      "stateMutability": "nonpayable",
      "type": "function"
    },
    {
      "inputs": [
        {
          "internalType": "uint256",
          "name": "_newAmount",
          "type": "uint256"
        }
      ],
      "name": "setAmountPerRequest",
      "outputs": [],
      "stateMutability": "nonpayable",
      "type": "function"
    },
    {
      "inputs": [],
      "name": "token",
      "outputs": [
        {
          "internalType": "contract IERC20",
          "name": "",
          "type": "address"
        }
      ],
      "stateMutability": "view",
      "type": "function"
    },
    {
      "inputs": [
        {
          "internalType": "address",
          "name": "newOwner",
          "type": "address"
        }
      ],
      "name": "transferOwnership",
      "outputs": [],
      "stateMutability": "nonpayable",
      "type": "function"
    },
    {
      "inputs": [
        {
          "internalType": "uint256",
          "name": "amount",
          "type": "uint256"
        }
      ],
      "name": "withdrawTokens",
      "outputs": [],
      "stateMutability": "nonpayable",
      "type": "function"
    }
  ],
  "bytecode": "0x60806040523480156200001157600080fd5b5060405162001791380380620017918339818101604052810190620000379190620002d7565b620000576200004b6200016660201b60201c565b6200016e60201b60201c565b60018081905550600073ffffffffffffffffffffffffffffffffffffffff168273ffffffffffffffffffffffffffffffffffffffff1603620000d0576040517f08c379a0000000000000000000000000000000000000000000000000000000008152600401620000c790620003a5565b60405180910390fd5b6000811162000116576040517f08c379a00000000000000000000000000000000000000000000000000000000081526004016200010d906200043d565b60405180910390fd5b81600260006101000a81548173ffffffffffffffffffffffffffffffffffffffff021916908373ffffffffffffffffffffffffffffffffffffffff1602179055508060038190555050506200045f565b600033905090565b60008060009054906101000a900473ffffffffffffffffffffffffffffffffffffffff169050816000806101000a81548173ffffffffffffffffffffffffffffffffffffffff021916908373ffffffffffffffffffffffffffffffffffffffff1602179055508173ffffffffffffffffffffffffffffffffffffffff168173ffffffffffffffffffffffffffffffffffffffff167f8be0079c531659141344cd1fd0a4f28419497f9722a3daafe3b4186f6b6457e060405160405180910390a35050565b600080fd5b600073ffffffffffffffffffffffffffffffffffffffff82169050919050565b6000620002648262000237565b9050919050565b620002768162000257565b81146200028257600080fd5b50565b60008151905062000296816200026b565b92915050565b6000819050919050565b620002b1816200029c565b8114620002bd57600080fd5b50565b600081519050620002d181620002a6565b92915050565b60008060408385031215620002f157620002f062000232565b5b6000620003018582860162000285565b92505060206200031485828601620002c0565b9150509250929050565b600082825260208201905092915050565b7f546f6b656e4661756365743a20746f6b656e2063616e6e6f742062652074686560008201527f207a65726f206164647265737300000000000000000000000000000000000000602082015250565b60006200038d602d836200031e565b91506200039a826200032f565b604082019050919050565b60006020820190508181036000830152620003c0816200037e565b9050919050565b7f546f6b656e4661756365743a20616d6f756e742070657220726571756573742060008201527f6d7573742062652067726561746572207468616e207a65726f00000000000000602082015250565b6000620004256039836200031e565b91506200043282620003c7565b604082019050919050565b60006020820190508181036000830152620004588162000416565b9050919050565b611322806200046f6000396000f3fe608060405234801561001057600080fd5b506004361061009e5760003560e01c806373b2e80e1161006657806373b2e80e1461011f5780638da5cb5b1461014f578063e6d252451461016d578063f2fde38b14610189578063fc0c546a146101a55761009e565b8063315a095d146100a3578063656734ed146100bf5780636a967491146100db5780637041c7b4146100f9578063715018a614610115575b600080fd5b6100bd60048036038101906100b89190610aca565b6101c3565b005b6100d960048036038101906100d49190610aca565b6103db565b005b6100e3610471565b6040516100f09190610b06565b60405180910390f35b610113600480360381019061010e9190610b7f565b610477565b005b61011d610549565b005b61013960048036038101906101349190610b7f565b61055d565b6040516101469190610bc7565b60405180910390f35b61015761057d565b6040516101649190610bf1565b60405180910390f35b61018760048036038101906101829190610b7f565b6105a6565b005b6101a3600480360381019061019e9190610b7f565b610844565b005b6101ad6108c7565b6040516101ba9190610c6b565b60405180910390f35b6101cb6108ed565b6000811161020e576040517f08c379a000000000000000000000000000000000000000000000000000000000815260040161020590610d09565b60405180910390fd5b600260009054906101000a900473ffffffffffffffffffffffffffffffffffffffff1673ffffffffffffffffffffffffffffffffffffffff166370a08231306040518263ffffffff1660e01b81526004016102699190610bf1565b602060405180830381865afa158015610286573d6000803e3d6000fd5b505050506040513d601f19601f820116820180604052508101906102aa9190610d3e565b8111156102ec576040517f08c379a00000000000000000000000000000000000000000000000000000000081526004016102e390610ddd565b60405180910390fd5b6000600260009054906101000a900473ffffffffffffffffffffffffffffffffffffffff1673ffffffffffffffffffffffffffffffffffffffff1663a9059cbb61033461057d565b846040518363ffffffff1660e01b8152600401610352929190610dfd565b6020604051808303816000875af1158015610371573d6000803e3d6000fd5b505050506040513d601f19601f820116820180604052508101906103959190610e52565b9050806103d7576040517f08c379a00000000000000000000000000000000000000000000000000000000081526004016103ce90610ef1565b60405180910390fd5b5050565b6103e36108ed565b60008111610426576040517f08c379a000000000000000000000000000000000000000000000000000000000815260040161041d90610f83565b60405180910390fd5b60006003549050816003819055507fc39bcda7510a2feb7b98e5466d0ae262b8392d8fb8447165439ebffc9d35af2f8183604051610465929190610fa3565b60405180910390a15050565b60035481565b61047f6108ed565b600073ffffffffffffffffffffffffffffffffffffffff168173ffffffffffffffffffffffffffffffffffffffff16036104ee576040517f08c379a00000000000000000000000000000000000000000000000000000000081526004016104e59061103e565b60405180910390fd5b6000600460008373ffffffffffffffffffffffffffffffffffffffff1673ffffffffffffffffffffffffffffffffffffffff16815260200190815260200160002060006101000a81548160ff02191690831515021790555050565b6105516108ed565b61055b600061096b565b565b60046020528060005260406000206000915054906101000a900460ff1681565b60008060009054906101000a900473ffffffffffffffffffffffffffffffffffffffff16905090565b6105ae610a2f565b600073ffffffffffffffffffffffffffffffffffffffff168173ffffffffffffffffffffffffffffffffffffffff160361061d576040517f08c379a0000000000000000000000000000000000000000000000000000000008152600401610614906110d0565b60405180910390fd5b600460008273ffffffffffffffffffffffffffffffffffffffff1673ffffffffffffffffffffffffffffffffffffffff16815260200190815260200160002060009054906101000a900460ff16156106aa576040517f08c379a00000000000000000000000000000000000000000000000000000000081526004016106a190611162565b60405180910390fd5b6001600460008373ffffffffffffffffffffffffffffffffffffffff1673ffffffffffffffffffffffffffffffffffffffff16815260200190815260200160002060006101000a81548160ff0219169083151502179055506000600260009054906101000a900473ffffffffffffffffffffffffffffffffffffffff1673ffffffffffffffffffffffffffffffffffffffff1663a9059cbb836003546040518363ffffffff1660e01b8152600401610763929190610dfd565b6020604051808303816000875af1158015610782573d6000803e3d6000fd5b505050506040513d601f19601f820116820180604052508101906107a69190610e52565b9050806107e8576040517f08c379a00000000000000000000000000000000000000000000000000000000081526004016107df90610ef1565b60405180910390fd5b8173ffffffffffffffffffffffffffffffffffffffff167f16b0da2ffcb90c6723317bd637d9aad7f04711f42bbe0ac0918ebe10f1f9001c6003546040516108309190610b06565b60405180910390a250610841610a7e565b50565b61084c6108ed565b600073ffffffffffffffffffffffffffffffffffffffff168173ffffffffffffffffffffffffffffffffffffffff16036108bb576040517f08c379a00000000000000000000000000000000000000000000000000000000081526004016108b2906111f4565b60405180910390fd5b6108c48161096b565b50565b600260009054906101000a900473ffffffffffffffffffffffffffffffffffffffff1681565b6108f5610a87565b73ffffffffffffffffffffffffffffffffffffffff1661091361057d565b73ffffffffffffffffffffffffffffffffffffffff1614610969576040517f08c379a000000000000000000000000000000000000000000000000000000000815260040161096090611260565b60405180910390fd5b565b60008060009054906101000a900473ffffffffffffffffffffffffffffffffffffffff169050816000806101000a81548173ffffffffffffffffffffffffffffffffffffffff021916908373ffffffffffffffffffffffffffffffffffffffff1602179055508173ffffffffffffffffffffffffffffffffffffffff168173ffffffffffffffffffffffffffffffffffffffff167f8be0079c531659141344cd1fd0a4f28419497f9722a3daafe3b4186f6b6457e060405160405180910390a35050565b600260015403610a74576040517f08c379a0000000000000000000000000000000000000000000000000000000008152600401610a6b906112cc565b60405180910390fd5b6002600181905550565b60018081905550565b600033905090565b600080fd5b6000819050919050565b610aa781610a94565b8114610ab257600080fd5b50565b600081359050610ac481610a9e565b92915050565b600060208284031215610ae057610adf610a8f565b5b6000610aee84828501610ab5565b91505092915050565b610b0081610a94565b82525050565b6000602082019050610b1b6000830184610af7565b92915050565b600073ffffffffffffffffffffffffffffffffffffffff82169050919050565b6000610b4c82610b21565b9050919050565b610b5c81610b41565b8114610b6757600080fd5b50565b600081359050610b7981610b53565b92915050565b600060208284031215610b9557610b94610a8f565b5b6000610ba384828501610b6a565b91505092915050565b60008115159050919050565b610bc181610bac565b82525050565b6000602082019050610bdc6000830184610bb8565b92915050565b610beb81610b41565b82525050565b6000602082019050610c066000830184610be2565b92915050565b6000819050919050565b6000610c31610c2c610c2784610b21565b610c0c565b610b21565b9050919050565b6000610c4382610c16565b9050919050565b6000610c5582610c38565b9050919050565b610c6581610c4a565b82525050565b6000602082019050610c806000830184610c5c565b92915050565b600082825260208201905092915050565b7f546f6b656e4661756365743a20616d6f756e74206d757374206265206772656160008201527f746572207468616e207a65726f00000000000000000000000000000000000000602082015250565b6000610cf3602d83610c86565b9150610cfe82610c97565b604082019050919050565b60006020820190508181036000830152610d2281610ce6565b9050919050565b600081519050610d3881610a9e565b92915050565b600060208284031215610d5457610d53610a8f565b5b6000610d6284828501610d29565b91505092915050565b7f546f6b656e4661756365743a20696e73756666696369656e7420746f6b656e2060008201527f62616c616e636500000000000000000000000000000000000000000000000000602082015250565b6000610dc7602783610c86565b9150610dd282610d6b565b604082019050919050565b60006020820190508181036000830152610df681610dba565b9050919050565b6000604082019050610e126000830185610be2565b610e1f6020830184610af7565b9392505050565b610e2f81610bac565b8114610e3a57600080fd5b50565b600081519050610e4c81610e26565b92915050565b600060208284031215610e6857610e67610a8f565b5b6000610e7684828501610e3d565b91505092915050565b7f546f6b656e4661756365743a20746f6b656e207472616e73666572206661696c60008201527f6564000000000000000000000000000000000000000000000000000000000000602082015250565b6000610edb602283610c86565b9150610ee682610e7f565b604082019050919050565b60006020820190508181036000830152610f0a81610ece565b9050919050565b7f546f6b656e4661756365743a20616d6f756e742070657220726571756573742060008201527f6d7573742062652067726561746572207468616e207a65726f00000000000000602082015250565b6000610f6d603983610c86565b9150610f7882610f11565b604082019050919050565b60006020820190508181036000830152610f9c81610f60565b9050919050565b6000604082019050610fb86000830185610af7565b610fc56020830184610af7565b9392505050565b7f546f6b656e4661756365743a20757365722063616e6e6f74206265207468652060008201527f7a65726f20616464726573730000000000000000000000000000000000000000602082015250565b6000611028602c83610c86565b915061103382610fcc565b604082019050919050565b600060208201905081810360008301526110578161101b565b9050919050565b7f546f6b656e4661756365743a20726563697069656e742063616e6e6f7420626560008201527f20746865207a65726f2061646472657373000000000000000000000000000000602082015250565b60006110ba603183610c86565b91506110c58261105e565b604082019050919050565b600060208201905081810360008301526110e9816110ad565b9050919050565b7f546f6b656e4661756365743a20616464726573732068617320616c726561647960008201527f20636c61696d656420746f6b656e730000000000000000000000000000000000602082015250565b600061114c602f83610c86565b9150611157826110f0565b604082019050919050565b6000602082019050818103600083015261117b8161113f565b9050919050565b7f4f776e61626c653a206e6577206f776e657220697320746865207a65726f206160008201527f6464726573730000000000000000000000000000000000000000000000000000602082015250565b60006111de602683610c86565b91506111e982611182565b604082019050919050565b6000602082019050818103600083015261120d816111d1565b9050919050565b7f4f776e61626c653a2063616c6c6572206973206e6f7420746865206f776e6572600082015250565b600061124a602083610c86565b915061125582611214565b602082019050919050565b600060208201905081810360008301526112798161123d565b9050919050565b7f5265656e7472616e637947756172643a207265656e7472616e742063616c6c00600082015250565b60006112b6601f83610c86565b91506112c182611280565b602082019050919050565b600060208201905081810360008301526112e5816112a9565b905091905056fea26469706673582212206165b019bd0c647cb35efd3245901b5a3097e340eda28b6d94a4f3c47481b8a464736f6c63430008130033",
  "linkReferences": {},
  "deployedLinkReferences": {}
}